{
  "_format": "hh-sol-artifact-1",
  "contractName": "PropertyStaking",
  "sourceName": "contracts/PropertyStaking.sol",
  "abi": [
    {
      "inputs": [],
      "stateMutability": "nonpayable",
      "type": "constructor"
    },
    {
      "inputs": [],
      "name": "ECDSAInvalidSignature",
      "type": "error"
    },
    {
      "inputs": [
        {
          "internalType": "uint256",
          "name": "length",
          "type": "uint256"
        }
      ],
      "name": "ECDSAInvalidSignatureLength",
      "type": "error"
    },
    {
      "inputs": [
        {
          "internalType": "bytes32",
          "name": "s",
          "type": "bytes32"
        }
      ],
      "name": "ECDSAInvalidSignatureS",
      "type": "error"
    },
    {
      "anonymous": false,
      "inputs": [
        {
          "indexed": true,
          "internalType": "uint256",
          "name": "propertyId",
          "type": "uint256"
        }
      ],
      "name": "PropertyClosed",
      "type": "event"
    },
    {
      "anonymous": false,
      "inputs": [
        {
          "indexed": true,
          "internalType": "uint256",
          "name": "propertyId",
          "type": "uint256"
        },
        {
          "indexed": false,
          "internalType": "string",
          "name": "name",
          "type": "string"
        },
        {
          "indexed": false,
          "internalType": "string",
          "name": "location",
          "type": "string"
        },
        {
          "indexed": false,
          "internalType": "uint256",
          "name": "targetAmount",
          "type": "uint256"
        },
        {
          "indexed": false,
          "internalType": "uint8",
          "name": "roi",
          "type": "uint8"
        }
      ],
      "name": "PropertyCreated",
      "type": "event"
    },
    {
      "anonymous": false,
      "inputs": [
        {
          "indexed": true,
          "internalType": "uint256",
          "name": "propertyId",
          "type": "uint256"
        },
        {
          "indexed": true,
          "internalType": "address",
          "name": "user",
          "type": "address"
        },
        {
          "indexed": false,
          "internalType": "uint256",
          "name": "amount",
          "type": "uint256"
        }
      ],
      "name": "Staked",
      "type": "event"
    },
    {
      "anonymous": false,
      "inputs": [
        {
          "indexed": true,
          "internalType": "uint256",
          "name": "propertyId",
          "type": "uint256"
        },
        {
          "indexed": true,
          "internalType": "address",
          "name": "user",
          "type": "address"
        },
        {
          "indexed": false,
          "internalType": "uint256",
          "name": "amount",
          "type": "uint256"
        }
      ],
      "name": "Unstaked",
      "type": "event"
    },
    {
      "inputs": [
        {
          "internalType": "uint256",
          "name": "propertyId",
          "type": "uint256"
        }
      ],
      "name": "closeProperty",
      "outputs": [],
      "stateMutability": "nonpayable",
      "type": "function"
    },
    {
      "inputs": [
        {
          "internalType": "string",
          "name": "name",
          "type": "string"
        },
        {
          "internalType": "string",
          "name": "location",
          "type": "string"
        },
        {
          "internalType": "string",
          "name": "imageUrl",
          "type": "string"
        },
        {
          "internalType": "uint256",
          "name": "targetAmount",
          "type": "uint256"
        },
        {
          "internalType": "uint8",
          "name": "roi",
          "type": "uint8"
        },
        {
          "internalType": "uint256",
          "name": "nonce",
          "type": "uint256"
        },
        {
          "internalType": "bytes",
          "name": "signature",
          "type": "bytes"
        }
      ],
      "name": "createProperty",
      "outputs": [],
      "stateMutability": "nonpayable",
      "type": "function"
    },
    {
      "inputs": [],
      "name": "getActiveProperties",
      "outputs": [
        {
          "internalType": "uint256[]",
          "name": "",
          "type": "uint256[]"
        }
      ],
      "stateMutability": "view",
      "type": "function"
    },
    {
      "inputs": [
        {
          "internalType": "uint256",
          "name": "propertyId",
          "type": "uint256"
        }
      ],
      "name": "getProperty",
      "outputs": [
        {
          "components": [
            {
              "internalType": "string",
              "name": "name",
              "type": "string"
            },
            {
              "internalType": "string",
              "name": "location",
              "type": "string"
            },
            {
              "internalType": "string",
              "name": "imageUrl",
              "type": "string"
            },
            {
              "internalType": "uint256",
              "name": "targetAmount",
              "type": "uint256"
            },
            {
              "internalType": "uint256",
              "name": "currentAmount",
              "type": "uint256"
            },
            {
              "internalType": "uint8",
              "name": "roi",
              "type": "uint8"
            },
            {
              "internalType": "bool",
              "name": "isActive",
              "type": "bool"
            },
            {
              "internalType": "address",
              "name": "owner",
              "type": "address"
            }
          ],
          "internalType": "struct PropertyStaking.Property",
          "name": "",
          "type": "tuple"
        }
      ],
      "stateMutability": "view",
      "type": "function"
    },
    {
      "inputs": [
        {
          "internalType": "uint256",
          "name": "propertyId",
          "type": "uint256"
        },
        {
          "internalType": "address",
          "name": "user",
          "type": "address"
        }
      ],
      "name": "getUserStake",
      "outputs": [
        {
          "internalType": "euint64",
          "name": "",
          "type": "bytes32"
        }
      ],
      "stateMutability": "view",
      "type": "function"
    },
    {
      "inputs": [
        {
          "internalType": "uint256",
          "name": "propertyId",
          "type": "uint256"
        },
        {
          "internalType": "uint256",
          "name": "nonce",
          "type": "uint256"
        },
        {
          "internalType": "bytes",
          "name": "signature",
          "type": "bytes"
        }
      ],
      "name": "getUserStakeWithSignature",
      "outputs": [
        {
          "internalType": "euint64",
          "name": "",
          "type": "bytes32"
        }
      ],
      "stateMutability": "nonpayable",
      "type": "function"
    },
    {
      "inputs": [
        {
          "internalType": "uint256",
          "name": "",
          "type": "uint256"
        }
      ],
      "name": "properties",
      "outputs": [
        {
          "internalType": "string",
          "name": "name",
          "type": "string"
        },
        {
          "internalType": "string",
          "name": "location",
          "type": "string"
        },
        {
          "internalType": "string",
          "name": "imageUrl",
          "type": "string"
        },
        {
          "internalType": "uint256",
          "name": "targetAmount",
          "type": "uint256"
        },
        {
          "internalType": "uint256",
          "name": "currentAmount",
          "type": "uint256"
        },
        {
          "internalType": "uint8",
          "name": "roi",
          "type": "uint8"
        },
        {
          "internalType": "bool",
          "name": "isActive",
          "type": "bool"
        },
        {
          "internalType": "address",
          "name": "owner",
          "type": "address"
        }
      ],
      "stateMutability": "view",
      "type": "function"
    },
    {
      "inputs": [],
      "name": "propertyCount",
      "outputs": [
        {
          "internalType": "uint256",
          "name": "",
          "type": "uint256"
        }
      ],
      "stateMutability": "view",
      "type": "function"
    },
    {
      "inputs": [],
      "name": "protocolId",
      "outputs": [
        {
          "internalType": "uint256",
          "name": "",
          "type": "uint256"
        }
      ],
      "stateMutability": "pure",
      "type": "function"
    },
    {
      "inputs": [
        {
          "internalType": "uint256",
          "name": "propertyId",
          "type": "uint256"
        },
        {
          "internalType": "externalEuint64",
          "name": "encryptedAmount",
          "type": "bytes32"
        },
        {
          "internalType": "bytes",
          "name": "inputProof",
          "type": "bytes"
        },
        {
          "internalType": "uint256",
          "name": "nonce",
          "type": "uint256"
        },
        {
          "internalType": "bytes",
          "name": "signature",
          "type": "bytes"
        }
      ],
      "name": "stake",
      "outputs": [],
      "stateMutability": "payable",
      "type": "function"
    },
    {
      "inputs": [
        {
          "internalType": "uint256",
          "name": "propertyId",
          "type": "uint256"
        },
        {
          "internalType": "externalEuint64",
          "name": "encryptedAmount",
          "type": "bytes32"
        },
        {
          "internalType": "bytes",
          "name": "inputProof",
          "type": "bytes"
        }
      ],
      "name": "unstake",
      "outputs": [],
      "stateMutability": "nonpayable",
      "type": "function"
    },
    {
      "inputs": [
        {
          "internalType": "address",
          "name": "",
          "type": "address"
        },
        {
          "internalType": "uint256",
          "name": "",
          "type": "uint256"
        }
      ],
      "name": "usedNonces",
      "outputs": [
        {
          "internalType": "bool",
          "name": "",
          "type": "bool"
        }
      ],
      "stateMutability": "view",
      "type": "function"
    },
    {
      "stateMutability": "payable",
      "type": "receive"
    }
  ],
  "bytecode": "0x608060405234801561000f575f5ffd5b5061018a6100ae604080516080810182525f80825260208201819052918101829052606081019190915250604080516080810182527350157cffd6bbfa2dece204a89ec419c23ef5755d815273cd3ab3bd6bcc0c0bf3e27912a92043e817b1cf69602082015273a02cda4ca3a71d7c46997716f4283aa851c2881291810191909152731364cbbf2cdf5032c47d8226a6f6fbd2afcdacac606082015290565b80517f9e7b61f58c47dc699ac88507c4f5bb9f121c03808c5676a8078fe583e464970080546001600160a01b03199081166001600160a01b039384161790915560208301517f9e7b61f58c47dc699ac88507c4f5bb9f121c03808c5676a8078fe583e46497018054831691841691909117905560408301517f9e7b61f58c47dc699ac88507c4f5bb9f121c03808c5676a8078fe583e46497028054831691841691909117905560608301517f9e7b61f58c47dc699ac88507c4f5bb9f121c03808c5676a8078fe583e46497038054909216921691909117905550565b6102236040518060400160405280601a81526020017f4c7578757279204d616e68617474616e2041706172746d656e740000000000008152506040518060400160405280601681526020017f446f776e746f776e204d616e68617474616e2c204e59000000000000000000008152506040518060600160405280603f8152602001612a13603f91396802b5e3af16b1880000600c61034e565b6102bc6040518060400160405280601b81526020017f53696c69636f6e2056616c6c6579204f666669636520546f77657200000000008152506040518060400160405280601681526020017f46696e616e6369616c2044697374726963742c20534600000000000000000000815250604051806080016040528060428152602001612a9460429139680410d586a20a4c0000600a61034e565b6103496040518060400160405280601a81526020017f42657665726c792048696c6c732056696c6c61204573746174650000000000008152506040518060400160405280601181526020017042657665726c792048696c6c732c20434160781b815250604051806080016040528060428152602001612a526042913968056bc75e2d63100000600f61034e565b61073c565b5f82116103ae5760405162461bcd60e51b8152602060048201526024808201527f54617267657420616d6f756e74206d75737420626520677265617465722074686044820152630616e20360e41b60648201526084015b60405180910390fd5b5f8160ff161180156103c4575060648160ff1611155b6104105760405162461bcd60e51b815260206004820152601d60248201527f524f49206d757374206265206265747765656e203120616e642031303000000060448201526064016103a5565b600280545f918261042083610559565b9091555060408051610100810182528881526020808201899052818301889052606082018790525f6080830181905260ff871660a0840152600160c08401523360e084015284815290819052919091208151929350909181906104839082610615565b50602082015160018201906104989082610615565b50604082015160028201906104ad9082610615565b50606082015160038201556080820151600482015560a08201516005909101805460c084015160e0909401516001600160a01b0316620100000262010000600160b01b03199415156101000261ffff1990921660ff90941693909317179290921617905560405181907f1facd300fa7ba933323ce3152f5f6f72aba5c2276dca50c5224543749afd0166906105499089908990889088906106fd565b60405180910390a2505050505050565b5f6001820161057657634e487b7160e01b5f52601160045260245ffd5b5060010190565b634e487b7160e01b5f52604160045260245ffd5b600181811c908216806105a557607f821691505b6020821081036105c357634e487b7160e01b5f52602260045260245ffd5b50919050565b601f82111561061057805f5260205f20601f840160051c810160208510156105ee5750805b601f840160051c820191505b8181101561060d575f81556001016105fa565b50505b505050565b81516001600160401b0381111561062e5761062e61057d565b6106428161063c8454610591565b846105c9565b6020601f821160018114610674575f831561065d5750848201515b5f19600385901b1c1916600184901b17845561060d565b5f84815260208120601f198516915b828110156106a35787850151825560209485019460019092019101610683565b50848210156106c057868401515f19600387901b60f8161c191681555b50505050600190811b01905550565b5f81518084528060208401602086015e5f602082860101526020601f19601f83011685010191505092915050565b608081525f61070f60808301876106cf565b828103602084015261072181876106cf565b91505083604083015260ff8316606083015295945050505050565b6122ca806107495f395ff3fe6080604052600436106100c6575f3560e01c80639626a23011610071578063da1f12ab1161004c578063da1f12ab14610222578063eb81e09814610236578063f7b1080814610257575f5ffd5b80639626a230146101db578063b228ab1c146101fa578063c361a3351461020d575f5ffd5b80636a8a6894116100a15780636a8a6894146101465780637be2da461461018f5780637f8d6091146101bc575f5ffd5b80630902d474146100d15780632f3c1f93146100f257806332665ffb14610111575f5ffd5b366100cd57005b5f5ffd5b3480156100dc575f5ffd5b506100f06100eb366004611b50565b61028a565b005b3480156100fd575f5ffd5b506100f061010c366004611c53565b6103c8565b34801561011c575f5ffd5b5061013061012b366004611d34565b610767565b60405161013d9190611d79565b60405180910390f35b348015610151575f5ffd5b5061017f610160366004611e3e565b600360209081525f928352604080842090915290825290205460ff1681565b604051901515815260200161013d565b34801561019a575f5ffd5b506101ae6101a9366004611b50565b610a16565b60405190815260200161013d565b3480156101c7575f5ffd5b506100f06101d6366004611d34565b610c3e565b3480156101e6575f5ffd5b506101ae6101f5366004611e66565b610d9f565b6100f0610208366004611e90565b610dc8565b348015610218575f5ffd5b506101ae60025481565b34801561022d575f5ffd5b506127116101ae565b348015610241575f5ffd5b5061024a6111b3565b60405161013d9190611f1b565b348015610262575f5ffd5b50610276610271366004611d34565b6112a5565b60405161013d989796959493929190611f5d565b60025484106102da5760405162461bcd60e51b8152602060048201526017602482015276141c9bdc195c9d1e48191bd95cc81b9bdd08195e1a5cdd604a1b60448201526064015b60405180910390fd5b5f61031a8484848080601f0160208091040260200160405190810160405280939291908181526020018383808284375f9201919091525061148992505050565b5f868152600160209081526040808320338452909152902054909150610340818361149d565b5f8781526001602090815260408083203384529091529020819055610364906114cb565b505f86815260016020908152604080832033808552925290912054610388916114da565b506040515f8152339087907f37375b03d8924bd8f076f11f8411b9962aa5c02fb489021507bc6bb6f850e3659060200160405180910390a3505050505050565b5f85116104235760405162461bcd60e51b8152602060048201526024808201527f54617267657420616d6f756e74206d75737420626520677265617465722074686044820152630616e20360e41b60648201526084016102d1565b5f8460ff16118015610439575060648460ff1611155b6104855760405162461bcd60e51b815260206004820152601d60248201527f524f49206d757374206265206265747765656e203120616e642031303000000060448201526064016102d1565b335f90815260036020908152604080832086845290915290205460ff16156104e45760405162461bcd60e51b8152602060048201526012602482015271139bdb98d948185b1c9958591e481d5cd95960721b60448201526064016102d1565b5f88868686304660405160200161050096959493929190611fd1565b6040516020818303038152906040528051906020012090505f61054f827f19457468657265756d205369676e6564204d6573736167653a0a3332000000005f908152601c91909152603c902090565b90505f6105918286868080601f0160208091040260200160405190810160405280939291908181526020018383808284375f920191909152506114ec92505050565b90506001600160a01b03811633146105df5760405162461bcd60e51b8152602060048201526011602482015270496e76616c6964207369676e617475726560781b60448201526064016102d1565b335f9081526003602090815260408083208984529091528120805460ff1916600117905560028054908261061283612062565b9091555060408051610100810182528e815260208082018f90528183018e9052606082018d90525f6080830181905260ff8d1660a0840152600160c08401523360e0840152848152908190529190912081519293509091819061067590826120fe565b506020820151600182019061068a90826120fe565b506040820151600282019061069f90826120fe565b50606082015160038201556080820151600482015560a08201516005909101805460c084015160e0909401516001600160a01b031662010000027fffffffffffffffffffff0000000000000000000000000000000000000000ffff9415156101000261ffff1990921660ff90941693909317179290921617905560405181907f1facd300fa7ba933323ce3152f5f6f72aba5c2276dca50c5224543749afd016690610751908f908f908e908e906121b9565b60405180910390a2505050505050505050505050565b6107b86040518061010001604052806060815260200160608152602001606081526020015f81526020015f81526020015f60ff1681526020015f151581526020015f6001600160a01b031681525090565b60025482106108035760405162461bcd60e51b8152602060048201526017602482015276141c9bdc195c9d1e48191bd95cc81b9bdd08195e1a5cdd604a1b60448201526064016102d1565b5f82815260208190526040908190208151610100810190925280548290829061082b9061207a565b80601f01602080910402602001604051908101604052809291908181526020018280546108579061207a565b80156108a25780601f10610879576101008083540402835291602001916108a2565b820191905f5260205f20905b81548152906001019060200180831161088557829003601f168201915b505050505081526020016001820180546108bb9061207a565b80601f01602080910402602001604051908101604052809291908181526020018280546108e79061207a565b80156109325780601f1061090957610100808354040283529160200191610932565b820191905f5260205f20905b81548152906001019060200180831161091557829003601f168201915b5050505050815260200160028201805461094b9061207a565b80601f01602080910402602001604051908101604052809291908181526020018280546109779061207a565b80156109c25780601f10610999576101008083540402835291602001916109c2565b820191905f5260205f20905b8154815290600101906020018083116109a557829003601f168201915b5050509183525050600382015460208201526004820154604082015260059091015460ff8082166060840152610100820416151560808301526201000090046001600160a01b031660a09091015292915050565b5f6002548510610a625760405162461bcd60e51b8152602060048201526017602482015276141c9bdc195c9d1e48191bd95cc81b9bdd08195e1a5cdd604a1b60448201526064016102d1565b335f90815260036020908152604080832087845290915290205460ff1615610ac15760405162461bcd60e51b8152602060048201526012602482015271139bdb98d948185b1c9958591e481d5cd95960721b60448201526064016102d1565b6040517f44656372797074207374616b65000000000000000000000000000000000000006020820152602d8101869052604d81018590526bffffffffffffffffffffffff193060601b16606d8201524660818201525f9060a1016040516020818303038152906040528051906020012090505f610b6a827f19457468657265756d205369676e6564204d6573736167653a0a3332000000005f908152601c91909152603c902090565b90505f610bac8287878080601f0160208091040260200160405190810160405280939291908181526020018383808284375f920191909152506114ec92505050565b90506001600160a01b0381163314610bfa5760405162461bcd60e51b8152602060048201526011602482015270496e76616c6964207369676e617475726560781b60448201526064016102d1565b5050335f8181526003602090815260408083208984528252808320805460ff191660019081179091558a845282528083209383529290522054915050949350505050565b6002548110610c895760405162461bcd60e51b8152602060048201526017602482015276141c9bdc195c9d1e48191bd95cc81b9bdd08195e1a5cdd604a1b60448201526064016102d1565b5f818152602081905260409020600501546201000090046001600160a01b03163314610cf75760405162461bcd60e51b815260206004820152601d60248201527f4f6e6c79206f776e65722063616e20636c6f73652070726f706572747900000060448201526064016102d1565b5f81815260208190526040902060050154610100900460ff16610d5c5760405162461bcd60e51b815260206004820152601760248201527f50726f706572747920616c726561647920636c6f73656400000000000000000060448201526064016102d1565b5f81815260208190526040808220600501805461ff00191690555182917f66cf4272e2145a934a05c7a68ee99b0298a6a4d001a1e921740e2078544fd3b491a250565b5f8281526001602090815260408083206001600160a01b03851684529091529020545b92915050565b6002548710610e135760405162461bcd60e51b8152602060048201526017602482015276141c9bdc195c9d1e48191bd95cc81b9bdd08195e1a5cdd604a1b60448201526064016102d1565b5f87815260208190526040902060050154610100900460ff16610e785760405162461bcd60e51b815260206004820152601660248201527f50726f7065727479206973206e6f74206163746976650000000000000000000060448201526064016102d1565b5f3411610ec75760405162461bcd60e51b815260206004820152601660248201527f4d7573742073656e642045544820746f207374616b650000000000000000000060448201526064016102d1565b335f90815260036020908152604080832086845290915290205460ff1615610f265760405162461bcd60e51b8152602060048201526012602482015271139bdb98d948185b1c9958591e481d5cd95960721b60448201526064016102d1565b6040517f5374616b6520696e2070726f7065727479000000000000000000000000000000602082015260318101889052346051820152607181018490526bffffffffffffffffffffffff193060601b1660918201524660a58201525f9060c5016040516020818303038152906040528051906020012090505f610fd5827f19457468657265756d205369676e6564204d6573736167653a0a3332000000005f908152601c91909152603c902090565b90505f6110178286868080601f0160208091040260200160405190810160405280939291908181526020018383808284375f920191909152506114ec92505050565b90506001600160a01b03811633146110655760405162461bcd60e51b8152602060048201526011602482015270496e76616c6964207369676e617475726560781b60448201526064016102d1565b335f9081526003602090815260408083208984528252808320805460ff191660011790558051601f8b018390048302810183019091528981526110c4918c91908c908c90819084018382808284375f9201919091525061148992505050565b5f8c81526001602090815260408083203384529091529020549091506110ea8183611514565b5f8d81526001602090815260408083203384528252808320939093558e825281905290812060040180543492906111229084906121f8565b90915550505f8c8152600160209081526040808320338452909152902054611149906114cb565b505f8c81526001602090815260408083203380855292529091205461116d916114da565b5060405134815233908d907f18dcd430020e4d4899772fd94a8b40451dc5044dfb70bc46b532eeae431c864f9060200160405180910390a3505050505050505050505050565b60605f805b6002548110156111f6575f81815260208190526040902060050154610100900460ff16156111ee57816111ea81612062565b9250505b6001016111b8565b505f8167ffffffffffffffff81111561121157611211611b9f565b60405190808252806020026020018201604052801561123a578160200160208202803683370190505b5090505f805b60025481101561129c575f81815260208190526040902060050154610100900460ff1615611294578083838151811061127b5761127b61220b565b60209081029190910101528161129081612062565b9250505b600101611240565b50909392505050565b5f602081905290815260409020805481906112bf9061207a565b80601f01602080910402602001604051908101604052809291908181526020018280546112eb9061207a565b80156113365780601f1061130d57610100808354040283529160200191611336565b820191905f5260205f20905b81548152906001019060200180831161131957829003601f168201915b50505050509080600101805461134b9061207a565b80601f01602080910402602001604051908101604052809291908181526020018280546113779061207a565b80156113c25780601f10611399576101008083540402835291602001916113c2565b820191905f5260205f20905b8154815290600101906020018083116113a557829003601f168201915b5050505050908060020180546113d79061207a565b80601f01602080910402602001604051908101604052809291908181526020018280546114039061207a565b801561144e5780601f106114255761010080835404028352916020019161144e565b820191905f5260205f20905b81548152906001019060200180831161143157829003601f168201915b505050600384015460048501546005909501549394909390925060ff8082169250610100820416906001600160a01b03620100009091041688565b5f61149683836005611542565b9392505050565b5f826114af576114ac5f611662565b92505b816114c0576114bd5f611662565b91505b61149683835f611678565b5f6114d6823061175b565b5090565b5f6114e5838361175b565b5090919050565b5f5f5f5f6114fa86866117e4565b92509250925061150a828261182d565b5090949350505050565b5f82611526576115235f611662565b92505b81611537576115345f611662565b91505b61149683835f6118e9565b7f9e7b61f58c47dc699ac88507c4f5bb9f121c03808c5676a8078fe583e46497015460405163196d0b9b60e01b81525f917f9e7b61f58c47dc699ac88507c4f5bb9f121c03808c5676a8078fe583e4649700916001600160a01b039091169063196d0b9b906115bb908890339089908990600401612253565b6020604051808303815f875af11580156115d7573d5f5f3e3d5ffd5b505050506040513d601f19601f820116820180604052508101906115fb9190612292565b8154604051630f8e573b60e21b8152600481018390523360248201529193506001600160a01b031690633e395cec906044015f604051808303815f87803b158015611644575f5ffd5b505af1158015611656573d5f5f3e3d5ffd5b50505050509392505050565b5f610dc28267ffffffffffffffff166005611986565b5f5f821561168b5750600160f81b61168e565b505f5b7f9e7b61f58c47dc699ac88507c4f5bb9f121c03808c5676a8078fe583e4649701546040516303056db360e31b815260048101879052602481018690526001600160f81b0319831660448201527f9e7b61f58c47dc699ac88507c4f5bb9f121c03808c5676a8078fe583e4649700916001600160a01b03169063182b6d98906064015b6020604051808303815f875af115801561172d573d5f5f3e3d5ffd5b505050506040513d601f19601f820116820180604052508101906117519190612292565b9695505050505050565b5f7f9e7b61f58c47dc699ac88507c4f5bb9f121c03808c5676a8078fe583e46497008054604051635ca4b5b160e11b8152600481018690526001600160a01b03858116602483015292935091169063b9496b62906044015f604051808303815f87803b1580156117c9575f5ffd5b505af11580156117db573d5f5f3e3d5ffd5b50505050505050565b5f5f5f835160410361181b576020840151604085015160608601515f1a61180d88828585611a43565b955095509550505050611826565b505081515f91506002905b9250925092565b5f8260038111156118405761184061221f565b03611849575050565b600182600381111561185d5761185d61221f565b0361187b5760405163f645eedf60e01b815260040160405180910390fd5b600282600381111561188f5761188f61221f565b036118b05760405163fce698f760e01b8152600481018290526024016102d1565b60038260038111156118c4576118c461221f565b036118e5576040516335e2f38360e21b8152600481018290526024016102d1565b5050565b5f5f82156118fc5750600160f81b6118ff565b505f5b7f9e7b61f58c47dc699ac88507c4f5bb9f121c03808c5676a8078fe583e46497015460405163022f65e760e31b815260048101879052602481018690526001600160f81b0319831660448201527f9e7b61f58c47dc699ac88507c4f5bb9f121c03808c5676a8078fe583e4649700916001600160a01b03169063117b2f3890606401611711565b7f9e7b61f58c47dc699ac88507c4f5bb9f121c03808c5676a8078fe583e464970154604051639cd07acb60e01b81525f917f9e7b61f58c47dc699ac88507c4f5bb9f121c03808c5676a8078fe583e4649700916001600160a01b0390911690639cd07acb906119fb90879087906004016122a9565b6020604051808303815f875af1158015611a17573d5f5f3e3d5ffd5b505050506040513d601f19601f82011682018060405250810190611a3b9190612292565b949350505050565b5f80807f7fffffffffffffffffffffffffffffff5d576e7357a4501ddfe92f46681b20a0841115611a7c57505f91506003905082611b01565b604080515f808252602082018084528a905260ff891692820192909252606081018790526080810186905260019060a0016020604051602081039080840390855afa158015611acd573d5f5f3e3d5ffd5b5050604051601f1901519150506001600160a01b038116611af857505f925060019150829050611b01565b92505f91508190505b9450945094915050565b5f5f83601f840112611b1b575f5ffd5b50813567ffffffffffffffff811115611b32575f5ffd5b602083019150836020828501011115611b49575f5ffd5b9250929050565b5f5f5f5f60608587031215611b63575f5ffd5b8435935060208501359250604085013567ffffffffffffffff811115611b87575f5ffd5b611b9387828801611b0b565b95989497509550505050565b634e487b7160e01b5f52604160045260245ffd5b5f82601f830112611bc2575f5ffd5b813567ffffffffffffffff811115611bdc57611bdc611b9f565b604051601f8201601f19908116603f0116810167ffffffffffffffff81118282101715611c0b57611c0b611b9f565b604052818152838201602001851015611c22575f5ffd5b816020850160208301375f918101602001919091529392505050565b803560ff81168114611c4e575f5ffd5b919050565b5f5f5f5f5f5f5f5f60e0898b031215611c6a575f5ffd5b883567ffffffffffffffff811115611c80575f5ffd5b611c8c8b828c01611bb3565b985050602089013567ffffffffffffffff811115611ca8575f5ffd5b611cb48b828c01611bb3565b975050604089013567ffffffffffffffff811115611cd0575f5ffd5b611cdc8b828c01611bb3565b96505060608901359450611cf260808a01611c3e565b935060a0890135925060c089013567ffffffffffffffff811115611d14575f5ffd5b611d208b828c01611b0b565b999c989b5096995094979396929594505050565b5f60208284031215611d44575f5ffd5b5035919050565b5f81518084528060208401602086015e5f602082860101526020601f19601f83011685010191505092915050565b602081525f82516101006020840152611d96610120840182611d4b565b90506020840151601f19848303016040850152611db38282611d4b565b9150506040840151601f19848303016060850152611dd18282611d4b565b91505060608401516080840152608084015160a084015260a0840151611dfc60c085018260ff169052565b5060c084015180151560e08501525060e08401516001600160a01b038116610100850152509392505050565b80356001600160a01b0381168114611c4e575f5ffd5b5f5f60408385031215611e4f575f5ffd5b611e5883611e28565b946020939093013593505050565b5f5f60408385031215611e77575f5ffd5b82359150611e8760208401611e28565b90509250929050565b5f5f5f5f5f5f5f60a0888a031215611ea6575f5ffd5b8735965060208801359550604088013567ffffffffffffffff811115611eca575f5ffd5b611ed68a828b01611b0b565b90965094505060608801359250608088013567ffffffffffffffff811115611efc575f5ffd5b611f088a828b01611b0b565b989b979a50959850939692959293505050565b602080825282518282018190525f918401906040840190835b81811015611f52578351835260209384019390920191600101611f34565b509095945050505050565b61010081525f611f7161010083018b611d4b565b8281036020840152611f83818b611d4b565b90508281036040840152611f97818a611d4b565b60608401989098525050608081019490945260ff9290921660a0840152151560c08301526001600160a01b031660e0909101529392505050565b7f4372656174652070726f7065727479000000000000000000000000000000000081525f87518060208a01600f85015e600f92019182019690965260f89490941b6001600160f81b031916602f850152603084019290925260601b6bffffffffffffffffffffffff19166050830152606482015260840192915050565b634e487b7160e01b5f52601160045260245ffd5b5f600182016120735761207361204e565b5060010190565b600181811c9082168061208e57607f821691505b6020821081036120ac57634e487b7160e01b5f52602260045260245ffd5b50919050565b601f8211156120f957805f5260205f20601f840160051c810160208510156120d75750805b601f840160051c820191505b818110156120f6575f81556001016120e3565b50505b505050565b815167ffffffffffffffff81111561211857612118611b9f565b61212c81612126845461207a565b846120b2565b6020601f82116001811461215e575f83156121475750848201515b5f19600385901b1c1916600184901b1784556120f6565b5f84815260208120601f198516915b8281101561218d578785015182556020948501946001909201910161216d565b50848210156121aa57868401515f19600387901b60f8161c191681555b50505050600190811b01905550565b608081525f6121cb6080830187611d4b565b82810360208401526121dd8187611d4b565b91505083604083015260ff8316606083015295945050505050565b80820180821115610dc257610dc261204e565b634e487b7160e01b5f52603260045260245ffd5b634e487b7160e01b5f52602160045260245ffd5b6054811061224f57634e487b7160e01b5f52602160045260245ffd5b9052565b8481526001600160a01b0384166020820152608060408201525f61227a6080830185611d4b565b90506122896060830184612233565b95945050505050565b5f602082840312156122a2575f5ffd5b5051919050565b82815260408101611496602083018461223356fea164736f6c634300081b000a68747470733a2f2f696d616765732e756e73706c6173682e636f6d2f70686f746f2d313534353332343431382d6363316133666131306330303f773d34303068747470733a2f2f696d616765732e756e73706c6173682e636f6d2f70686f746f2d313631333439303439333537362d3766646536336163643831313f773d34303068747470733a2f2f696d616765732e756e73706c6173682e636f6d2f70686f746f2d313438363430363134363932362d6336323761393261643161623f773d343030",
  "linkReferences": {},
  "deployedLinkReferences": {}
}